:020000040800F2
:10000000D006002089010008F10E0008E103000875
:100010009D0D00085F020008AF1C000800000000F2
:10002000000000000000000000000000C9130008EC
:100030006302000800000000B11200088D150008DE
:10004000A3010008A3010008A3010008A301000800
:10005000A3010008A3010008A3010008A3010008F0
:10006000A3010008A3010008A3010008A3010008E0
:10007000A3010008A3010008A3010008A3010008D0
:10008000A3010008A3010008A3010008A3010008C0
:10009000A3010008A3010008A3010008A3010008B0
:1000A000A3010008A3010008A3010008A3010008A0
:1000B000F1150008A3010008A3010008A30100082E
:1000C000A3010008A3010008A3010008A301000880
:1000D000A30100085D1A0008A3010008A30100089D
:1000E000A3010008A3010008A301000800F002F822
:1000F00000F03AF80AA090E8000C82448344AAF188
:100100000107DA4501D100F02FF8AFF2090EBAE885
:100110000F0013F0010F18BFFB1A43F0010318473B
:1001200084300000A4300000103A24BF78C878C1A1
:10013000FAD8520724BF30C830C144BF04680C60ED
:10014000704700000023002400250026103A28BF35
:1001500078C1FBD8520728BF30C148BF0B60704739
:100160001FB51FBD10B510BD00F044F81146FFF7D4
:10017000F7FF01F0A5FF00F062F803B4FFF7F2FF0C
:1001800003BC00F065F800000948804709480047B3
:10019000FEE7FEE7FEE7FEE7FEE7FEE7FEE7FEE737
:1001A000FEE7FEE704480549054A064B7047000094
:1001B00091150008ED000008D0000020D0060020B6
:1001C000D0020020D002002070477047704710B561
:1001D00000F008F8006810BD10B5044600F002F801
:1001E000046010BD004870476C0000200048704754
:1001F0006C0000207546FFF7F9FFAE460500694622
:10020000534620F00700854618B020B5FFF7CAFF17
:10021000BDE820404FF000064FF000074FF0000807
:100220004FF0000B21F00701AC46ACE8C009ACE888
:10023000C009ACE8C009ACE8C0098D46704710B5EC
:100240000446AFF300802046BDE81040FFF795BF9D
:1002500001491820ABBEFEE726000200704700BF30
:10026000FEE7704700B5034603E04FF47A7000F0F4
:1002700005F8181EA3F10103F7D100BD00EBC00182
:10028000C9004FF0E0225161002191610521116107
:1002900000BF4FF0E021096901F480310029F8D056
:1002A00004214FF0E022116170472DE9F041024630
:1002B00000250026002000230024002791F803C019
:1002C0000CF00F0591F803C00CF0100CBCF1000FFE
:1002D00003D091F802C04CEA050591F800C0BCF1CA
:1002E000000F31D0146800202BE04FF0010C0CFA05
:1002F00000F3B1F800C00CEA03069E4220D183004F
:100300004FF00F0C0CFA03F7BC4305FA03FC4CEA60
:10031000040491F803C0BCF1280F06D14FF0010C82
:100320000CFA00FCC2F814C00AE091F803C0BCF15A
:10033000480F05D14FF0010C0CFA00FCC2F810C0B8
:10034000401C0828D1D31460B1F800C0BCF1FF0FE5
:1003500034DD546800202EE000F1080C4FF0010855
:1003600008FA0CF3B1F800C00CEA03069E4221D152
:1003700083004FF00F0C0CFA03F7BC4305FA03FCA3
:100380004CEA040491F803C0BCF1280F05D100F138
:10039000080C08FA0CF8C2F8148091F803C0BCF1FC
:1003A000480F07D100F1080C4FF0010808FA0CF8CB
:1003B000C2F81080401C0828CED35460BDE8F081FC
:1003C0000246002093680B400BB1012000E00020A2
:1003D0007047016170470AB1016100E041617047F7
:1003E00000BFFEE72DE9F04788B000250026002772
:1003F000A846A94642A20121084600F025FF44A2D2
:100400000121022000F020FF44A20121032000F07E
:100410001BFF00244EE002A803A904AB05AACDE906
:10042000001006A907A800F08FF8BDF9100002F02F
:1004300065F98246294601F0DBFF0546BDF90C004F
:1004400002F05CF98246314601F0D2FF0646BDF962
:10045000080002F053F98246394601F0C9FF074609
:10046000BDF91C0002F04AF98246414601F0C0FF86
:100470008046BDF9180002F041F98246494601F074
:10048000B7FF81460220FFF7EDFE642094FBF0F1F8
:1004900000FB114068B9142094FBF0FA0323524684
:1004A0000121042000F0AEFE20A20421084600F045
:1004B000CBFE641CB4F5FA6FADDB1D49284602F093
:1004C0000BF81C4908601A49304602F005F81A4931
:1004D00008601749384601F0FFFF184908601449C1
:1004E000404601F0F9FF164908601149484601F0FD
:1004F000F3FF1449086000F03FFD08B0BDE8F08745
:1005000043616C6962726174696E672E2E2E000001
:100510004B656570205374696C6C21004C65766581
:100520006C20506C61636521000000002500000014
:100530000000FA44280000202C0000203000002099
:1005400034000020380000202DE9FF4705460E4604
:1005500017469846DDE90C9A00F094FCD02000F094
:100560007CFC00F045FC3B2000F077FC00F040FCF8
:1005700000F088FCD12000F070FC00F039FC002471
:100580000DE000F044FC0DF804000D2C01DB01210E
:1005900000E00021084600F054FC601CC4B20E2CA0
:1005A000EFDB00F07DFC9DF801009DF8001040EAB3
:1005B000012000B228809DF803009DF8021040EA57
:1005C000012000B230809DF805009DF8041040EA3B
:1005D000012000B238809DF809009DF8081040EA1B
:1005E000012000B2A8F800009DF80B009DF80A1049
:1005F00040EA012000B2A9F800009DF80D009DF826
:100600000C1040EA012000B2AAF80000BDE8FF8704
:100610002DE9F04F89B005460E4691469A46DDE930
:1006200012B403A804A905AB06AACDE9001007A9D6
:1006300008A8FFF789FFBDF9200002F05FF88046A7
:1006400047480168404602F0CFF907464FF08A411B
:1006500001F042FF2860BDF91C0002F04FF880460F
:1006600040480168404602F0BFF907464FF08A4112
:1006700001F032FF3060BDF9180002F03FF8074684
:100680004FF08A4101F028FFC9F80000BDF91400BD
:1006900002F034F8019034480168019802F0A4F99E
:1006A0008046324901F018FF0746314902F03EF812
:1006B000CAF80000BDF9100002F020F801902D48A2
:1006C0000168019802F090F98046284901F004FF82
:1006D0000746274902F02AF8CBF80000BDF90C00C4
:1006E00002F00CF8804624480168404602F07CF98C
:1006F00007461E4901F0F0FE029020480078B0B98C
:10070000029801F049FE21F00041074600221C4BEF
:1007100001F00CFE08D20120184908701449029813
:1007200002F004F8206017E00020206014E0029836
:1007300001F032FE21F0004107460022114B01F08A
:1007400065FD04D200200D490870206004E00849CE
:10075000029801F0EBFF206009B0BDE8F08F0000C7
:10076000340000203800002028000020333383416B
:1007700035FA8E3C2C000020300000203C00002088
:100780000000F03F0000E03F10B500F009FB012140
:100790006B2000F015F800216C2000F011F8092101
:1007A000192000F00DF803211A2000F009F8182193
:1007B0001B2000F005F818211C2000F001F810BDE6
:1007C00070B505460C4600F05DFBD02000F045FBFF
:1007D00000F00EFB284600F040FB00F009FB20462D
:1007E00000F03BFB00F004FB00F05AFB70BD000082
:1007F0000FB5A5B0FE482799006801F097FF0D904E
:10080000FC482699006801F091FF0B90FA480068B7
:1008100080F000400990259901F088FF0A900B991B
:1008200002F0E2F80C900D9902F0DEF84FF07C51E6
:100830000E9001F07BFF1F90ED482699006801F0B3
:1008400075FF0D90EB482799006801F06FFF0B9042
:10085000EA480168259801F069FF0A900B9901F0B8
:10086000C7FD0C900D9902F0BFF84FF07C510E902F
:1008700001F05CFF1E90DE480168259801F056FFEC
:100880000D90DD482799006801F050FF0B90DB4880
:100890002699006801F04AFF0A900B9902F0A4F82B
:1008A0000C900D9901F0A4FD4FF07C510E9001F0D9
:1008B0003DFF1D90CF480168259801F037FF0D904E
:1008C000CD482699006801F031FF0B90CB4827995D
:1008D000006801F02BFF0A900B9901F089FD0C9044
:1008E0000D9902F081F84FF07C510E9001F01EFF3F
:1008F0001C900021289801F0B1FE09D100212A980E
:1009000001F0ACFE04D100212B9801F0A7FE7DD0B0
:100910002B99084601F00AFF0D902A99084601F02C
:1009200005FF0B902899084601F000FF0A900B99EB
:1009300001F05EFD0C900D9901F05AFD0E9001F052
:1009400099FB24902499289801F0F0FE289024998E
:100950002A9801F0EBFE2A9024992B9801F0E6FEEC
:100960002B90A64801684FF0804001F0DFFE1B90FD
:10097000A14801684FF0804001F0D8FE1A909D48D0
:1009800001684FF0804001F0D1FE1990984801684D
:100990004FF0804001F0CAFE1890984801684FF06F
:1009A000814001F0C3FE1790934801684FF08140E9
:1009B00001F0BCFE16908F4801684FF0814001F0B5
:1009C000B5FE15908C4801684FF0824001F0AEFEF4
:1009D0001490884801684FF0824001F0A7FE139000
:1009E00086480168006801F0A1FE12908248016803
:1009F000006801F09BFE11907E480168006801F0DC
:100A000095FE10907A480168006800E044E101F02A
:100A10008DFE0F902A991A9801F088FE0E90119978
:100A2000179801F083FE0C902899199801F07EFE2A
:100A30000A901099179801F079FE09900A9901F02F
:100A4000D7FC0B900C9901F0D3FC0D900E9901F09E
:100A5000CBFF23902B99169801F068FE0E90109909
:100A6000149801F063FE0C901199149801F05EFE49
:100A70000A902A991B9801F059FE07904FF0814087
:100A8000129901F053FE03905B480168039801F04E
:100A90004DFE05902899189801F048FE03900F9993
:100AA000169801F043FE0290039901F09DFF049017
:100AB000059901F09DFC0690079901F095FF0890BB
:100AC000169901F091FF09900A9901F091FC0B90A1
:100AD0000C9901F08DFC0D900E9901F089FC22908B
:100AE0002B99159801F022FE0E901099139801F0A1
:100AF0001DFE0C901199139801F018FE0A902A9986
:100B0000189801F013FE07900F99159801F00EFE4A
:100B1000059028991B9801F009FE03904FF0814041
:100B2000129901F003FE019032480168019801F02A
:100B3000FDFD0290039901F05BFC0490059901F022
:100B400057FC0690079901F04FFF0890159901F0A6
:100B50004BFF09900A9901F04BFC0B900C9901F0A6
:100B600047FC0D900E9901F043FC21902A991998A9
:100B700001F0DCFD0E904FF08140109901F0D6FDA0
:100B80000A901B4801680A9801F0D0FD0C90289942
:100B90001A9801F0CBFD0A904FF08140119901F0B5
:100BA000C5FD089012480168089801F0BFFD099042
:100BB0000A9901F019FF0B900C9901F019FC0D90A6
:100BC0000E9901F011FF20902099084601F0AEFD2A
:100BD0000D902199084601F0A9FD0B902299084635
:100BE00001F0A4FD09902399084601F09FFD07E05C
:100BF00024000020200000201C00002018000020FD
:100C00000890099901F0F4FB0A900B9901F0F0FBB0
:100C10000C900D9901F0ECFB0E9001F02BFA249052
:100C2000DDE9230101F082FD23902499229801F04F
:100C30007DFD22902499219801F078FD219024993E
:100C4000209801F073FD20904E482399006801F030
:100C50006DFD0E901F9901F035FE1F9049482299B5
:100C6000006801F063FD0E901E9901F02BFE1E90AE
:100C700044482199006801F059FD0E901D9901F03A
:100C800021FE1D903F482099006801F04FFD0E9015
:100C90001C9901F017FE1C903B491F9801F046FD7E
:100CA0000E903A4801680E9801F0A2FB374908609F
:100CB00035491E9801F03AFD0E90354801680E98AE
:100CC00001F096FB324908602F491D9801F02EFD76
:100CD0000E90304801680E9801F08AFB2D4908609B
:100CE00029491C9801F022FD0E902B4801680E98AE
:100CF00001F07EFB2849086008460168006801F0A1
:100D000015FD0D9023480168006801F00FFD0B9060
:100D10001F480168006801F009FD09901B4801683F
:100D2000006801F003FD0890099901F061FB0A9049
:100D30000B9901F05DFB0C900D9901F059FB0E90A1
:100D400001F098F9249011482499006801F0EEFC14
:100D50000E4908600E482499006801F0E7FC0C4930
:100D600008600C482499006801F0E0FC094908601B
:100D700009482499006801F0D9FC0749086029B0A6
:100D800000BD0000140000200AD7233C18000020FA
:100D90001C000020200000202400002000BFFEE7EF
:100DA00008B50121082000F095FA14208DF8030001
:100DB0004FF44060ADF8000003208DF80200694652
:100DC0000448FFF772FA4FF440610248FFF701FB55
:100DD00008BD0000000C014010B54FF4006103484D
:100DE000FFF7EEFA0446204610BD0000000C01405B
:100DF00010B5012000F060F8012000F06BF8FFF75B
:100E0000EBFF0446002000F057F8204610BD70B5F7
:100E10000025012000F05EF800240EE0012000F023
:100E20004BF8FFF7D9FF012802D18020204105436C
:100E3000002000F041F8601CC4B2082CEEDB28460C
:100E400070BD10B50446204600F044F8012000F0C3
:100E500033F8002000F030F810BD70B505460024CE
:100E60000DE08021214101EA050000F033F8012066
:100E700000F022F8002000F01FF8601CC4B2082C1B
:100E8000EFDB70BD10B5012000F024F8012000F068
:100E900013F8002000F01EF8002000F00DF810BD3F
:100EA00010B5002000F016F8012000F005F8012030
:100EB00000F010F810BD000010B5044622464FF4B3
:100EC00080610348FFF787FA0A20FFF7D7F910BDC2
:100ED000000C014010B5044622464FF4006103485F
:100EE000FFF779FA0A20FFF7C9F910BD000C01409D
:100EF0007047000070B5002100230F22C47804B3AE
:100F0000154C246804F4E064C4F5E064210AC1F1DE
:100F10000403CA40447804FA03F18478144021435E
:100F200009010E4C0678A155047804F01F05012430
:100F3000AC4005786D11AD0005F1E025C5F8004124
:100F400009E0047804F01F050124AC40044D067844
:100F5000761145F8264070BD0CED00E000E400E09D
:100F600080E100E002490143024A1160704700003D
:100F70000000FA050CED00E070B500240EE0002141
:100F8000204600F0F4F8002504E0002000F080F98D
:100F9000681CC5B2802DF8DB601CC4B2082CEEDBE7
:100FA00070BD000008B50121082000F093F914205D
:100FB0008DF8030003208DF802004FF48070ADF827
:100FC000000069460A48FFF770F94FF40070ADF869
:100FD000000069460648FFF768F90122110204483B
:100FE000FFF7F9F9012251020148FFF7F4F908BDB2
:100FF000000C014070B50546002419E08020204116
:10100000284008B1012000E0002002464FF40071A2
:101010000E48FFF7E0F9012211020C48FFF7DBF957
:1010200000224FF480710948FFF7D5F9601CC4B263
:10103000082CE3DB012211020448FFF7CCF900225F
:101040004FF480710148FFF7C6F970BD000C0140F4
:1010500010B5012251020A48FFF7BDF90122110221
:101060000748FFF7B8F900224FF400710448FFF772
:10107000B2F900224FF480710148FFF7ACF910BDBE
:10108000000C014010B500224FF400710648FFF734
:10109000A2F9012211020448FFF79DF90122510231
:1010A0000148FFF798F910BD000C014070B500240D
:1010B00006E0002500E06D1CB5F57A7FFBD3641CCB
:1010C000B4F57A7FF5D3FFF76DFFAE2000F0D0F8CE
:1010D000D52000F0CDF8802000F0CAF8A82000F05C
:1010E000C7F83F2000F0C4F8D32000F0C1F800207A
:1010F00000F0BEF8402000F0BBF8A12000F0B8F8E6
:10110000C82000F0B5F8DA2000F0B2F8122000F0A4
:10111000AFF8812000F0ACF8CF2000F0A9F8D9207A
:1011200000F0A6F8F12000F0A3F8DB2000F0A0F812
:10113000302000F09DF8A42000F09AF8A62000F0DE
:1011400097F88D2000F094F8142000F091F8AF206B
:1011500000F08EF8FFF710FF70BD10B502460120B9
:1011600000E050430B1EA1F10101FAD110BD70B592
:1011700005460C4645F0B00000F07AF8102141EA2F
:10118000141000F075F804F00F0000F071F870BD55
:101190002DE9F04105460E461746721ED206110E85
:1011A0006A1E5206100EFFF7E2FF002409E0A7F1C5
:1011B0002001134A02EB0111085D00F069F8601C80
:1011C000C4B2082CF3DB721ED206110E6A1E012374
:1011D00003EB4202D0B2FFF7CAFF00240BE0A7F1F5
:1011E0002001074A02EB011204F10801505C00F0F3
:1011F0004FF8601CC4B2082CF1DBBDE8F0810000A0
:10120000B22B00082DE9F04780460E4617461D46D2
:10121000002415E0281B411E0A20FFF79EFFB7FBA4
:10122000F0F00A21B0FBF1F201FB120000F13009ED
:101230003019C1B24A464046FFF7AAFF601CC4B24B
:10124000AC42E7DBBDE8F0872DE9F04107460E46EA
:101250001546002407E02A5D3019C1B23846FFF771
:1012600097FF601CC4B2285D0028F4D1BDE8F0816E
:1012700010B50446FFF7ECFE7820FFF7BBFE002018
:10128000FFF7B8FE2046FFF7B5FEFFF7FBFE10BDE7
:1012900010B50446FFF7DCFE7820FFF7ABFE4020D8
:1012A000FFF7A8FE2046FFF7A5FEFFF7EBFE10BDF7
:1012B0007047000029B1064AD2690243044BDA6143
:1012C00004E0034AD2698243014BDA6170470000AF
:1012D0000010024029B1064A92690243044B9A6108
:1012E00004E0034A92698243014B9A61704700000F
:1012F0000010024030B500210022002400232D4DB3
:101300006D6805F00C0121B1042905D0082923D10D
:1013100005E0294D056022E0274D05601FE0254DC1
:101320006D6805F47012234D6D6805F48034022554
:1013300005EB92421CB9214D554305600BE01D4D54
:101340006D6805F400351DB11C4D5543056002E084
:10135000194D5543056002E0174D056000BF00BF01
:10136000144D6D6805F0F0010909154D6B5C0568B9
:10137000DD4045600F4D6D6805F4E061090A104DD0
:101380006B5C4568DD4085600A4D6D6805F4605111
:10139000C90A0B4D6B5C4568DD40C560054D6D6845
:1013A00005F44041890B074D6B5CC568B5FBF3F54F
:1013B000056130BD0010024000127A0000093D00B6
:1013C00000000020100000207047000000B587B02A
:1013D00001218803FFF77EFF01210420FFF77AFF38
:1013E00018208DF81B004FF40070ADF81800032092
:1013F0008DF81A0006A92148FEF757FF48208DF8FE
:101400001B004FF48060ADF8180003208DF81A001F
:1014100006A91A48FEF749FF4FF416500290002023
:10142000ADF814000C20ADF812000020ADF810004B
:10143000ADF80E00ADF80C0002A9114800F0C2FB97
:10144000012240F225510E4800F096FB4FF4A060B7
:10145000FFF788FD25208DF8040001208DF8070096
:101460008DF805008DF8060001A8FFF743FD012166
:10147000034800F03EFB07B000BD0000000801403B
:101480000038014010B504462146054800F00BFC29
:1014900000BF8021024800F038FB0028F9D010BDC1
:1014A0000038014010B500F001F810BD0CB5002067
:1014B000019000903348006840F480303149086062
:1014C00000BF3048006800F4003000900198401CD4
:1014D0000190009818B90198B0F5A06FF1D1294892
:1014E000006800F4003010B10120009001E00020FD
:1014F00000900098012843D12348006840F0100074
:10150000214908600846006820F00300086008468A
:10151000006840F0020008601A48406819494860B5
:101520000846406848600846406840F4806048606B
:101530000846406820F47C1048600846406840F443
:10154000E81048600846006840F08070086000BFFE
:101550000C48006800F000700028F9D00948406885
:1015600020F00300074948600846406840F0020048
:10157000486000BF0348406800F00C000828F9D11B
:101580000CBD000000100240002002407047000027
:1015900010B51348006840F0010011490860084682
:1015A0004068104908400E494860084600680E49E6
:1015B00008400B4908600846006820F48020086055
:1015C0000846406820F4FE0048604FF41F00886021
:1015D000FFF768FF4FF000600449086010BD00008D
:1015E000001002400000FFF8FFFFF6FE08ED00E0EB
:1015F0002DE9FC470121880700F080F901287CD102
:10160000A0480078401C9F4908709F480078401C03
:101610009D4908709B4800780A286FDB0020994993
:1016200008709A489A499B4B9B4ACDE900109B4908
:101630009B48FEF7EDFF9848006898490968CDE996
:1016400000109748036891480268914801689148E2
:101650000068FFF7CDF8934801689348006801F0EF
:1016600065F80746914801689148006801F05EF806
:101670008046394601F0B8F906464FF0404101F086
:1016800055F8054600F036FB04468A4901F04EF84D
:101690008949086083480168006801F047F881467D
:1016A00083480168006801F041F88246494600F02D
:1016B0009FFE80464FF0804101F038F807464FF01A
:1016C0007E5101F0FFF805467848016875480068CA
:1016D00001F02CF88046764801687348006801F0F4
:1016E00025F88146414600F083FE07464FF08041D1
:1016F00001F01CF80646294601E0C0E086E000F053
:101700008BFB04466B4901F011F86C49086067488F
:101710000168006801F00AF88146624801680068C3
:1017200001F004F88246494600F062FE80464FF020
:10173000804100F0FBFF07464FF07E5101F0C2F8F8
:101740000646584801685A48006800F0EFFF804696
:10175000564801685448006800F0E8FF8146414659
:1017600000F046FE07464FF0804100F0DFFF0446E0
:10177000314600F051FB05464E4900F0D7FF504975
:10178000086050480078401C4E49087008460078B0
:1017900005283BDB002008704B494748006800F0F3
:1017A000C5FF074600F08EFF04B247494348006872
:1017B00000F0BCFF074600F085FF05B242494048F3
:1017C000006800F0B3FF074600F07CFF06B2AA20D5
:1017D000FFF758FE0320FFF755FEC4F30720FFF77D
:1017E00051FEE0B2FFF74EFEC5F30720FFF74AFEB9
:1017F000E8B2FFF747FEC6F30720FFF743FEF0B25B
:10180000FFF740FEFF20FFF73DFE00BF1E480078B7
:10181000322812DB00201C490870AA20FFF732FE94
:101820000120FFF72FFE29480078FFF72BFEFF204D
:10183000FFF728FE00202649087013480078282862
:1018400019D123480078012806D1002021490870C9
:1018500001201E4908700EE01E480078401C1D49FA
:10186000087008460078042805DD00201749087034
:101870000420184908700121880700F030F8BDE8FD
:10188000FC87000068000020690000206000002044
:101890005C00002058000020540000205000002070
:1018A0004C00002020000020180000202400002010
:1018B0001C000020E12E6542400000204400002072
:1018C000480000206A0000200000C8426400002098
:1018D0006600002065000020CA4302827047CA43A8
:1018E0000282704721B1028842F00102028004E0C6
:1018F00002884FF6FE731A400280704730B50246E8
:10190000002000230024158A05EA0103958905EAD1
:10191000010413B10CB1012000E0002030BD1AB168
:1019200083890B43838102E083898B4383817047E2
:1019300001894FF6F8721140018170470022028838
:101940001D4B98420ED01D4B98420BD0B0F1804FEA
:1019500008D01B4B984205D01A4B984202D01A4B24
:10196000984204D14FF68F731A404B881A43174B95
:10197000984207D0164B984204D04FF6FF431A40C6
:10198000CB881A4302808B8883850B8803850A4B9A
:1019900098420BD0094B984208D00E4B984205D084
:1019A0000D4B984202D00D4B984201D10B7A038621
:1019B0000123838270470000002C01400034014065
:1019C0000004004000080040000C004000100040EF
:1019D0000014004000400140004401400048014024
:1019E0001FB501210846FFF765FC4FF08040FFF767
:1019F0009FFF0020ADF80A00ADF8060040F2E73086
:101A0000ADF808004720ADF8040000208DF80C0068
:101A100001A94FF08040FFF791FF01218807FFF7F0
:101A20005BFF012211469007FFF779FF4FF4A0609A
:101A3000FFF798FA1C208DF8000001208DF80300B4
:101A400002208DF8010001208DF802006846FFF7A2
:101A500051FA01218807FFF745FF1FBD10B540F27D
:101A60002551194800F05EF801282CD1164800F0E5
:101A700015F9C4B21548007828B9AA2C03D1012061
:101A80001249087019E011480078012805D1022C8C
:101A900003D102200D4908700FE00C48007802289D
:101AA00008D1FF2C06D10120094908700020074900
:101AB000087002E000200549087040F225510248F4
:101AC00000F008F800BF10BD00380140670000209A
:101AD0006600002010B50022002340F66A14A142DF
:101AE00000D100BF0A1201249440A3B2DC43048059
:101AF00010BD21B1828942F40052828104E08289C2
:101B00004DF6FF731A408281704702460020B1F5FE
:101B1000007F00D100BF13880B400BB1012000E013
:101B20000020704770B502460024002300250020E5
:101B300040F66A16B14200D100BFC1F3421501F070
:101B40001F03012606FA03F3012D02D196893340C3
:101B500006E0022D02D1168A334001E0968A334016
:101B60000C12012606FA04F41688344013B10CB1A5
:101B7000012000E0002070BDF0B5034600240026DF
:101B80000025002040F66A17B94200D100BF184670
:101B9000C1F3421401F01F06012707FA06F5012CD4
:101BA00001D10C3004E0022C01D1103000E01430DF
:101BB0001AB107682F43076002E00768AF43076068
:101BC000F0BD00002DE9F04786B005460E46002422
:101BD000A24600BFA1460027B08900B100BF2F4632
:101BE0002C8A4CF6FF700440F08804432C82AC89A8
:101BF0004EF6F3100440B0883189084371890843D8
:101C00000443AC81AC8A4FF6FF400440B0890443E2
:101C1000AC8201A8FFF76EFB1F48874202D1DDF8B6
:101C200010A001E0DDF80CA0A88900F4004040B14C
:101C30000AEBCA0000EB0A1031684900B0FBF1F86A
:101C400007E00AEBCA0000EB0A1031688900B0FB1C
:101C5000F1F86420B8FBF0F004012009642101FBD5
:101C60001089A88900F4004040B1322000EBC9007F
:101C7000B0FBF1F000F00700044308E0322000EB75
:101C800009106421B0FBF1F000F00F0004432C8137
:101C900006B0BDE8F08700000038014001468888A2
:101CA000C0F308007047C1F308028280704700BF8C
:101CB000FEE74100080218BF04200A0E18BF40F0DA
:101CC00001004FF07F4232EA010108BF40F00200FC
:101CD000012808BF05207047012100F02CBF00F04B
:101CE00087BB0021084600F0F7BB6FF05E010807D4
:101CF00000F021BF2DE9F04104464FF00E4000EB0B
:101D00004400B0F1506F204655D84FF0FC41B1EB84
:101D1000440F1CD224F000404FF07E5100F0D2FD61
:101D20004FF0FF3100F007FF054600F04DFA14F0C8
:101D3000004F1DBF2F4F304E80F000402F4F08BF87
:101D40002F4E4FF0404100F0F1FC044605E0002723
:101D50003E46014600F0EAFC05462A49284600F0C6
:101D6000E5FC294900F044FB294600F0DFFC274947
:101D700000F03EFB294600F0D9FC254900F038FB75
:101D8000294600F0D3FC234900F032FB8046294667
:101D9000204600F0CBFC414600F0C8FC0546314629
:101DA000204600F025FB294600F022FB3946BDE81D
:101DB000F04100F01DBB4FF0E441B1EB440F08D9F6
:101DC000FFF777FF042808BFFFF78FFF2046BDE825
:101DD000F0814FF07F41B1EB440F03D2BDE8F041F9
:101DE000FFF77ABF0120FEF7F7F9BDE8F041FFF7F2
:101DF00078BF00000000C9BF22AAFDB90000C93F9A
:101E000022AAFD3924FE1C3DC78AD83C1E67383DF6
:101E10001B93993DAFAA2A3E2DE9F0474FF0684247
:101E200002EB40030C460546B3F1654F3CBF02EBA5
:101E30004102B2F1654F7CD2C0F3C753C1F3C75220
:101E40009A1A1B2A06DD10F0004F14BF7648774817
:101E5000BDE8F08712F11A0F17DA11F0004F06D023
:101E600010F0004F0CBF72487248BDE8F087214661
:101E7000284600F031FB0446FFF71BFF042808BF8B
:101E8000FFF733FF2046BDE8F0874200B2EB410F79
:101E900025D910F0004F19BF674F684E684F694E43
:101EA000224685F0004415460A4680F0004110465F
:101EB0000A1A5200B2F1807F40D248406249DFF8EE
:101EC0008CA110F0004F18D04FF03F48384600F07A
:101ED0008BFD07465146304600F086FD17E011F0B5
:101EE000004F04BF00263746E2D010F0004F19BF64
:101EF000574F584E584F594EDAE74FF07C583846F6
:101F000000F076FA07465146304600F071FA064670
:101F10004146284600F00AFC214600F069FA824654
:101F20002146404600F002FC294600F0CBFC514619
:101F300000E037E000F0D0FA044604E021462846ED
:101F400000F0CAFA0446014600F0F0FB804644491E
:101F500000F0ECFB434900F04BFA414600F0E6FB91
:101F6000414900F045FA414600F0E0FB3F4900F0EE
:101F70003FFA414600F0DAFB3D4900F039FA0546E8
:101F80004146204600F0D2FB294600F0CFFB314607
:101F900000F02EFA214600F02BFA3946BDE8F04752
:101FA00000F026BA4FF07F42B2EB400F28BFB2EBF1
:101FB000410F03D2BDE8F047FFF791BE40EA0103AD
:101FC0005B0008BF44F0FF410AD0B2EB400F08BFEE
:101FD000B2EB410F06D125F0804024F08041054648
:101FE0000C4629E7B2EB400F12BF5FEA410245F011
:101FF000FF4004F000413FF41FAF4A0092EA400363
:102000003FF51AAF002AACBF4FF09F464FF03E5647
:10201000314600F08BFB05463146204600F086FB3A
:1020200004462846214607E7DB0FC9BFDB0FC93F3F
:10203000DB0F4940DB0F49C00000C9BF22AAFDB930
:102040000000C93F22AAFD390060ED3EC30ACE3729
:10205000000049C022AA7DBA0000494022AA7D3A68
:102060002DAD65BD8FB8D53D0FB511BE61C84C3ED5
:10207000A8AAAABE2DE9F04704464FF07C5120469D
:1020800000F054FB814625462E460C48A0EB660620
:1020900035462946484600F049FB8246294600F06D
:1020A00045FB80464FF07F5100F00CFC0746294667
:1020B00000F03CFB05462846BDE8F087DF59375F56
:1020C000FEF7F4FFFEF758FF20A201210846FFF7B4
:1020D000BBF822A201210220FFF7B6F8FFF776F93C
:1020E000FEF752FB20A201210320FFF7ADF840F6D6
:1020F000B830FEF7B7F820A201210320FFF7A4F8BB
:10210000FEF770F921A201210320FFF79DF84FF49B
:102110007A70FEF7A7F8FEF72FFF21A201210846EB
:10212000FFF792F821A201210220FFF78DF822A2E9
:1021300001210320FFF788F84FF4FA60FEF792F8C8
:10214000FEF71AFFFFF74CFC00BFFEE753797374EC
:10215000656D20496E69742E2E2E0000506C6561ED
:1021600073652077616974004D5055205761726D19
:10217000696E67207570000043616C6962726174FA
:10218000696E672E2E2E20200000000043616C69CE
:102190006272617465204F4B2120202000000000F6
:1021A0005374617274696E672E2E2E0044697370C9
:1021B0006C6179204F464600696E2032207365635A
:1021C0006F6E64730000000070B5054600F084FB7C
:1021D000044620F00040C0F1FF40C00F08D025F0B9
:1021E0000040C0F1FF40C00F04BF0120FDF7F4FF25
:1021F000204670BD491058BFC1F140415B1058BF27
:10220000C3F140438B42EFF30080704751EA030C67
:1022100017D41CF5801F58BFBCF5801F00F1068045
:10222000994218BF704708BF9042704707D711F511
:10223000801F58BF13F5801F19D4994270478942F7
:1022400070471CF5801F08D5BCF5801FF7D58B4261
:1022500018BF704708BF824270474FF4001C1CEB48
:10226000410F38BF1CEB430F01D28B42704770B552
:1022700000F008F8922449004FF000514FF08053CD
:10228000FFF7B8BF0EF1020E2EF0030E5EF8046BDE
:10229000364205D4012A43EB030515F5001F12D879
:1022A000012841EB010C1CF5001F0CD80ED14FEAA0
:1022B000D17C15F5001F0CEB4C0C0CF1020C08BF87
:1022C0004CEBD37C04E04FF0080C01E04FEAD37CE8
:1022D0000CEB4C0526FA05F606F00706B6F1040CE1
:1022E00006D20EEB860CBDE870404CF0010C604746
:1022F000DFE80CF0090B02024FF000414FF0000044
:10230000A1F5002170BD19461046012851EB0104CA
:1023100018BFD4F5001484BF002001F0004170BD47
:102320000808A0F500114FEA3101704753EA010C8B
:1023300017D41CF5801F58BFBCF5801F00F1068024
:102340008B4218BF704708BF8242704707D713F50A
:10235000801F58BF11F5801F19D48B4270479B42D4
:1023600070471CF5801F08D5BCF5801FF7D5994232
:1023700018BF704708BF904270474FF4001C1CEB19
:10238000430F38BF1CEB410F01D2994270470FB485
:102390000CBC03BCFFF76BBF43004FEAD30C4FEA02
:1023A0003C0C43401FBF40070CF1605113F0FE4F3F
:1023B00070471CF0006F03D100200CF00041704703
:1023C0000CF0004343EA507010B540EACC0000F036
:1023D0002EFA00BF000000924FEA0001FFF7A0BFF5
:1023E0004FF000414FF00000A1F5002170470000C0
:1023F00090EA010F48BF81F0004100F1FC82421ACF
:102400003CBF801A89184FEAD0524FF07F4C1CEA2B
:10241000410FA2EBD15318BF9CEA026F00F03B8042
:102420004FF0004C4CEA00204CEA012121FA03FC59
:1024300010EB0C0C1ED202F1FF325FEA1C2040EBC5
:10244000C25038BF70471CF07F0F4FEA400C18BFD6
:10245000BCF17F4F38BF7047C3F12003994008BFDC
:1024600020F00100BCF17F4F38BF7047A0F1C040A1
:1024700000F023BA4FEA3C00000A40EBC25028BFEC
:102480001CF0FF0F4FEA400CE6D018BFBCF17F4FA5
:1024900038BF7047EAE79CEA026F05D010EA5C0F8C
:1024A00008BF00F00040704710B500F0C0F900BF51
:1024B00064FBBE3E014800F00CBB00BF0000C07FC3
:1024C000401058BFC0F14040491058BFC1F14041D1
:1024D0008142EFF3008070474FF47F0C1CEAD0126A
:1024E0001EBF1CEAD11392EA0C0F93EA0C0F00F006
:1024F000858090EA010F48BF42F4807240F4000CDE
:1025000041F400002CF07F4120F07F4000B5814273
:10251000A2EB03020FF2081CACEB504EC0F100001E
:102520009EF800E04FEA4E0E00FB0EFC38BF49005B
:102530004FEA2C1C02F5FA020CFB0EF34FEACE1EFA
:102540004FEA112C4FEAC1210EEB635E42EB2242AF
:102550000EFB0CFC4FEA1C5300FB03114FEA112C3D
:102560004FEA01310EFB0CFC4FEADC4C00FB0C1176
:10257000C14228BF09184CEB03335DF804EB10EBA4
:10258000410143EBC250B2F57C0F38BF704729D5EB
:1025900012F0F00F1CBF00F1C04000F00040704787
:1025A000008182838485868788898B8C8D8E8F912C
:1025B0009293959697999A9C9D9FA0A2A3A5A7A850
:1025C000AAACAEB0B2B3B5B7B9BCBEC0C2C5C7C97C
:1025D000CCCED1D4D7D9DCDFE2E6E9ECF0F3F7FAE0
:1025E000FE0000004FEA400C0CF1807CBCF17E4FF5
:1025F00028BF7047B0F1C04000F05FB990EA010F0A
:102600000CEAD11348BF42F48072624538BF63457B
:1026100007D213F47F0F16D080EA010000F00040CB
:10262000704710B500F003F9097EFC3E00F005B8D4
:1026300080EA010000F00040704780EA010000F0ED
:10264000004000F03AB912F47F0F04BF024870470F
:1026500080EA010000F031B90000C07F50EA010CAF
:1026600000F113801CF5000F58BFBCF5000F01D41A
:102670008842704707D710F5000F58BF11F5000FBB
:1026800015D488427047894270471CF5000F04D565
:10269000BCF5000FF7D5814270474FF0807C1CEBF2
:1026A000400F38BF1CEB410F01D28142704710B57B
:1026B00000F0BDF8922449004FF000504FF08051D7
:1026C000FFF7FEBE41000B0ED3F19E0208D950F475
:1026D00000034FEA032323FA02F048BF4042704749
:1026E00010B500F0A4F800BF499224800020704784
:1026F0006FF0004282EA20007047000010F00041B5
:1027000048BF4042B0FA80F310FA03F2C3F19D03D0
:102710000BD051EAC35101EB1220530638BF70476A
:1027200000F1010008BF20F0010070474FF47F0C5A
:102730001CEAD0121EBF1CEAD11392EA0C0F93EAD6
:102740000C0F00F0478090EA010F48BF42F48072FE
:102750004FF0004C4CEA00204CEA012102EB03024E
:10276000A0FB0113A2F50002002918BF43F00103EA
:102770005B0028BF4FEA330342EB22425FEA132C8F
:102780004CEBC2502EBFBCEB436FB2F57C0F7047D1
:102790004FEA036CBCF1004F08BF20F00100B2F516
:1027A0007C0F38BF70470BD582F0FF0212F5803FD7
:1027B000C8BF704700F1C040D8BF00F0004070476C
:1027C00000F5000C5FEA4C0C48BF7047B0F1C04008
:1027D00000F073B890EA010F0CEAD11348BF42F43D
:1027E0008072624538BF634504D280EA010000F080
:1027F0000040704710B500F01AF800BF8900013E94
:1028000000F007B800F009B85FEA410C5FEA1C6C01
:1028100008D080EA010000F050B85FEA400C5FEA9F
:102820001C6CF6D14FF00040A0F5800070470EF10F
:10283000020E2EF0030E5EF8044B244204D44FEA3D
:102840004102B2F17F4F11D84FEA4003B3F17F4FFD
:102850000CD80ED14FEAD07CB2F17F4F0CEB4C0C70
:102860000CF1020C08BF4CEBD17C04E04FF0080CDB
:1028700001E04FEAD17C0CEB4C0324FA03F404F0A2
:102880000704B4F1040C06D20EEB840CBDE8104032
:102890004CF0010C6047DFE80CF0070802024FF033
:1028A0000040A0F5800010BD0846420018BFD2F1DC
:1028B000807288BF00F0004010BDFF2141EAD05077
:1028C000C005704780F0004090EA010F7FF597AD9A
:1028D00081F0004100F08FB84FEAD051002988BF45
:1028E000D1F1FF0240F2758001F17D014FEA002035
:1028F00070B5490840F0004038BF40080EA2430EB2
:10290000040CD25C02FB02F304FB03F3C3F140436B
:10291000A3FB0254ED0D45EA442202FB02F3A0FBA7
:1029200003546D42C4F1404438BF641EA2FB053518
:102930000023E2FB0453EA0B42EA4342A0FB0232CB
:1029400012F14004A2F12103E40903F07F031F2BDD
:1029500032D904EBC15070BDFEFAF7F3F0ECE9E6B2
:10296000E4E1DEDCD9D7D4D2D0CECCCAC8C6C4C24A
:10297000C1BFBDBCBAB9B7B6B4B3B2B0AFAEACAB01
:10298000AAA9A8A7A6A4A3A2A1A09F9E9E9D9C9B26
:102990009A999897979695949393929190908F8EF9
:1029A0008E8D8C8C8B8A8A89898887878686858498
:1029B000848383828281818004FB04F6B6EB004627
:1029C00003D5E64248BF641CC3E7A64258BF641C57
:1029D000BFE711F0FF0F02D100F00040704710B5C3
:1029E000FFF725FF7FDBFFBE90EA010F48BF81F0B4
:1029F00000413FF504AD421A04D882F00042A0EB3A
:102A0000020011444FEAD0524FF07F4C1CEA410FB4
:102A1000A2EBD15318BF9CEA026F4AD04FF0004C92
:102A20004CEA00204CEA012121FA03FCB0EB0C0C2B
:102A30000FD412F0FE0F36D05FEA4C001DD5001205
:102A400040EBC25038BF70471CF03F0F18BF7047B3
:102A50000BE0A2F101025FEA1C2040EBC25038BF3C
:102A600070471CF07F0F18BF7047C3F120039940D7
:102A700014BF401E20F00100704780084FEA122367
:102A800008BF7047B0FA80FCA2EB0C02CCF1280C16
:102A900060FA0CF093EA122F04BF00EBC2507047AB
:102AA0004FEAC3707047130A5FEADC1008BF704733
:102AB000F6E79CEA026F04D010EA5C0F08BF002022
:102AC000704710B5FFF7B3FE40DFF63E81F00040DF
:102AD00070470CF00F03092B08BF082000F051804D
:102AE0000A2B0BD0082B18BF704708BF1CF0400FF3
:102AF0000AD04FF000004FF0000170471CF0400F6B
:102B000018BF4FF0004070471CF0100F08D020F0A5
:102B1000704300F07F4242EAD3014FEA43707047AE
:102B200000F0604021F07F4242EA000201F07F4065
:102B300040EA727070474FF0FF0212EAD0521CBF99
:102B400092F0FF038B42C2BFD14200EBC1507047ED
:102B5000002A0AD0002B0BD0002900F00040A4BFAF
:102B600040F0FE4040F40000704700F00040704725
:102B700043024FF00B0C18BF4CF0806C7FF49AAC02
:102B800070471CF4801F11D01CF4E02F03D06FEAB3
:102B9000CC31490070474FF04050EFF3008222F0F3
:102BA000704242EA000282F3008870474FF0000052
:102BB000704700000000000000000000000000005E
:102BC0000000000000F800000000000000333000AA
:102BD000000000100C06100C0600000000000000B1
:102BE000000040C07840C0784000043F04043F0427
:102BF0000400007088FC08300000001820FF211E2F
:102C00000000F008F000E018000000211C031E2165
:102C10001E0000F00888700000001E2123241927E0
:102C2000211010160E00000000000000000000003F
:102C30000000000000E01804020000000007182057
:102C4000400000020418E0000000004020180700C7
:102C50000000404080F0804040000202010F01026D
:102C60000200000000F0000000000101011F01014E
:102C70000100000000000000000080B070000000B3
:102C8000000000000000000000000001010101013F
:102C900001010000000000000000003030000000D2
:102CA00000000000000080601804006018060100A9
:102CB000000000E010080810E000000F10202010B5
:102CC0000F00001010F8000000000020203F20201E
:102CD00000000070080808887000003028242221B5
:102CE000300000300888884830000018202020116B
:102CF0000E000000C02010F8000000070424243F4C
:102D0000240000F8088888080800001921202011F4
:102D10000E0000E0108888180000000F112020111C
:102D20000E0000380808C83808000000003F000006
:102D300000000070880808887000001C22212122F1
:102D40001C0000E010080810E000000031222211F1
:102D50000F00000000C0C000000000000030300084
:102D60000000000000800000000000008060000003
:102D7000000000008040201008000001020408103C
:102D8000200040404040404040000404040404044B
:102D900004000008102040800000002010080402F9
:102DA0000100007048080808F000000000303601FB
:102DB0000000C030C828E810E000071827242314BA
:102DC0000B000000C038E0000000203C2302022776
:102DD000382008F8888888700000203F20202011C3
:102DE0000E00C030080808083800071820202010FE
:102DF000080008F808080810E000203F20202010F4
:102E00000F0008F88888E8081000203F20202320C1
:102E1000180008F88888E8081000203F2000030008
:102E20000000C03008080838000007182020221EC3
:102E3000020008F808000008F808203F21010121DD
:102E40003F20000808F8080800000020203F20204C
:102E5000000000000808F8080800C08080807F009B
:102E6000000008F888C028180800203F20012638F4
:102E7000200008F8080000000000203F202020204B
:102E8000300008F8F800F8F80800203F003F003F45
:102E9000200008F830C00008F808203F200007187C
:102EA0003F00E01008080810E0000F10202020105C
:102EB0000F0008F808080808F000203F2101010170
:102EC0000000E01008080810E0000F182424385013
:102ED0004F0008F8888888887000203F2000030C85
:102EE000302000708808080838000038202121228E
:102EF0001C00180808F8080818000000203F2000EF
:102F0000000008F808000008F808001F2020202012
:102F10001F000878880000C83808000007380E0134
:102F20000000F80800F80008F800033C0700073C20
:102F30000300081868808068180820302C03032CD0
:102F400030200838C800C83808000000203F2000A2
:102F5000000010080808C838080020382621202062
:102F60001800000000FE020202000000007F404046
:102F70004000000C30C000000000000000010638D6
:102F8000C00000020202FE000000004040407F003E
:102F90000000000004020202040000000000000023
:102FA0000000000000000000000080808080808021
:102FB0008080000202040000000000000000000009
:102FC000000000008080808000000019242222225E
:102FD0003F2008F8008080000000003F11202011F1
:102FE0000E000000008080800000000E11202020D4
:102FF0001100000000808088F800000E11202010D1
:103000003F200000808080800000001F22222222BA
:103010001300008080F0888888180020203F20203E
:1030200000000000808080808000006B9494949366
:10303000600008F8008080800000203F2100002010
:103040003F2000809898000000000020203F2020B2
:103050000000000000809898000000C08080807F01
:10306000000008F8000080808000203F24022D30FE
:103070002000000808F8000000000020203F202069
:1030800000008080808080808000203F20003F20E2
:10309000003F8080008080800000203F21000020D1
:1030A0003F200000808080800000001F2020202022
:1030B0001F00808000808000000080FFA120201180
:1030C0000E000000008080808000000E112020A0F3
:1030D000FF80808080008080800020203F212000B1
:1030E000010000008080808080000033242424249C
:1030F0001900008080E0808000000000001F202078
:1031000000008080000000808000001F2020201030
:103110003F20808080000080808000010E30080603
:10312000010080800080008080800F300C030C3014
:103130000F0000808000808080000020312E0E3142
:103140002000808080000080808080818E70180642
:10315000010000808080808080000021302C2221AE
:10316000300000000000807C020200000000003FF0
:10317000404000000000FF00000000000000FF00D1
:1031800000000002027C800000000040403F000080
:10319000000000060101020204040000000000001B
:1031A00000000000C4310008000000206C00000096
:1031B00028010008303200086C000020640600007E
:1031C000440100080000000001020304010203049E
:1031D0000607080902040608CDCC4C3D0000803FDC
:1031E00000000000000000000000000000000000DF
:1031F00000000000000000000000000000000000CF
:1032000000000000000000000000000000000000BE
:1032100000000000000000000000000000000000AE
:10322000000000000000000001000000000000009D
:04000005080000ED02
:00000001FF
